:020000040000FA
:0600000014EF04F01200F1
:020006001200E6
:0600080010EF03F01200EE
:02000E000100EF
:0C001000540800000F0F00000500000065
:04001C00D9CFE6FF53
:10002000E1CFD9FFE652DF6AFBD81E0EE66E78D923
:10003000E552DF26DF5000D0E552E552E7CFD9FF89
:100040001200D9CFE6FFE1CFD9FF040EE126DE6A28
:10005000DD6A98D8FA0EDB50010A14E0010A01E0CB
:1000600022D0030EE66E5CD9E552006E016A00BE36
:100070000168D9CFE9FFDACFEAFF0050EE26015040
:10008000ED2211D0050EE66E4BD9E552006E016AE5
:1000900000BE0168D9CFE9FFDACFEAFF0050EE26B3
:1000A0000150ED2200D0FA0EDB0406E1370EE66EB9
:1000B000E5EC03F0E55205D0D20EE66EE5EC03F078
:1000C000E552020EDB6A030EDB6A020EDBCF00F0A4
:1000D000030EDBCF01F0026AD8900250000A06E658
:1000E000FF0E005CFF0E0158000E025808E282A8C5
:1000F00006D0020EDB2A030E01E3DB2AE6D782A834
:1001000004D0010EDE26000EDD22010EE66EB6D80A
:10011000E552E66E010EE76EFD0EDBCFE9FFFE0E47
:10012000DBCFEAFFE750E926000EEA22E552E7506E
:10013000EF6E010EE66EA2D8E552E66EFD0EDBCF45
:10014000E9FFFE0EDBCFEAFFE552E750EF6EE66A0D
:1001500095D8E552E66EFB0EDBCFE9FFFC0EDBCF58
:10016000EAFFE552E750EF6EDF50006E040EE15CEF
:1001700003E200D0E16AE552E16E0050E552E7CFBC
:10018000D9FF1200D9CFE6FFE1CFD9FF060EE12655
:100190008B969488010EDF6EDF0602E0FDD7FCD758
:1001A0008B86DE52010EDD6E010EDB0602E0FCD70F
:1001B000FBD78B989498F36E020EF3CFDBFF020E01
:1001C000DB0602E0FCD7FBD78B96010EF36E030E25
:1001D000F3CFDBFF030EDB0602E0FCD7FBD78B86F9
:1001E000010EF36E040EF3CFDBFF040EDB0602E01C
:1001F000FCD7FBD79488010EF36E050EF3CFDBFF1F
:10020000050EDB0602E0FCD7FBD78B96060EE15C01
:1002100002E2E16AE552E16EE552E7CFD9FF120052
:10022000D9CFE6FFE1CFD9FF030EE1268B88949862
:100230008B969496DF6A090EDF5C15E28B86DE52A0
:10024000010EDD6E010EDB0602E0FCD7FBD78B96BC
:10025000F36E020EF3CFDBFF020EDB0602E0FCD7EB
:10026000FBD7DF2AE8D78EDF030EE15C02E2E16A0A
:10027000E552E16EE552E7CFD9FF1200D9CFE6FF94
:10028000E1CFD9FF050EE126010EDB6A94888B963B
:10029000800EDF6EDF50000822E28B86010EF36EC7
:1002A000020EF3CFDBFF020EDB0602E0FCD7FBD72A
:1002B00082A807D0010EDB50DF10E76E010EE7CFFA
:1002C000DBFF8B96010EF36E030EF3CFDBFF030E05
:1002D000DB0602E0FCD7FBD7DF90DF42DBD7FE0E68
:1002E000DB0402E194988B988B86010EF36E040E6A
:1002F000F3CFDBFF040EDB0602E0FCD7FBD78B96C7
:100300009488010EDB50006E050EE15C03E200D024
:10031000E16AE552E16E0050E552E7CFD9FF1200E5
:10032000D9CFE6FFE1CFD9FF040EE126010EDB6A4B
:100330009498800EDF6EDF50000820E2FE0EDB5046
:10034000DF1402E08B8801D08B988B86010EF36E50
:10035000020EF3CFDBFF020EDB0602E0FCD7FBD779
:100360008B96010EF36E030EF3CFDBFF030EDB065D
:1003700002E0FCD7FBD7DF90DF42DDD794888B8685
:100380008250100B01E0010EE76E010EE7CFDBFF9C
:100390008B96DB50006E040EE15C03E200D0E16A54
:0E03A000E552E16E0050E552E7CFD9FF1200A2
:0203AE00240E1B
:1003B000AC6E900EAB6E0C0EAF6E400EB86E1200AF
:1003C000D9CFE6FFE1CFD9FFACA2FED7FE0EDB50BE
:1003D000AD6EE552E7CFD9FF1200D9CFE6FFE1CFEE
:1003E000D9FFE652FD0EDBCFF6FFDB2AFE0EDBCF98
:1003F000F7FF01E3DB2A0800F550DF6EDF5005E070
:10040000ACA2FED7DF50AD6EEDD7ACA2FED7E55261
:10041000E552E7CFD9FF1200D9CFE6FFE1CFD9FFF0
:10042000E652FE0EDB50DF6EFE0EDB380F0B0F0BBD
:10043000E76EFE0EE7CFDBFFACA2FED7FE0EDB5071
:10044000F76A440FF66E080EF7220800F550AD6EFD
:100450000F0EDF14E76EFE0EE7CFDBFFACA2FED778
:10046000FE0EDB50F76A440FF66E080EF722080006
:10047000F550AD6E00D0E552E552E7CFD9FF12003E
:10048000D9CFE6FFE1CFD9FF020EE126FD0EDBCF8B
:1004900000F0FE0EDBCF01F001C000F0016A005059
:1004A000DF6EFF0EE76EFD0EDBCF00F0FE0EDBCF42
:1004B00001F0E7500016016A010E00C0DBFFDFCF3C
:1004C000E6FFAADFE552010EDBCFE6FFA5DFE5522E
:1004D000020EE15C02E2E16AE552E16EE552E7CF2D
:1004E000D9FF1200D9CFE6FFE1CFD9FF040EE126F4
:1004F000FB0EDBCF00F0FC0EDBCF01F0FD0EDBCFFF
:1005000002F0FE0EDBCF03F0180ED8900332023259
:1005100001320032E806F9E10050DF6EFB0EDBCF5E
:1005200000F0FC0EDBCF01F0FD0EDBCF02F0FE0E83
:10053000DBCF03F0100ED8900332023201320032CA
:10054000E806F9E1010E00C0DBFFFB0EDBCF00F097
:10055000FC0EDBCF01F0FD0EDBCF02F0FE0EDBCF99
:1005600003F0080ED8900332023201320032E8065E
:10057000F9E1020E00C0DBFFFB0EDBCF00F0FC0E4A
:10058000DBCF01F0FD0EDBCF02F0FE0EDBCF03F080
:100590000050E76E030EE7CFDBFFDFCFE6FF3CDF67
:1005A000E552010EDBCFE6FF37DFE552020EDBCF6F
:1005B000E6FF32DFE552030EDBCFE6FF2DDFE5522B
:1005C000040EE15C02E2E16AE552E16EE552E7CF3A
:0405D000D9FF12003D
:0C05D4003AD80F01135120E0136B46D8F9
:1005E0000FCF0AFF10CF0BFF11CF0CFF12CF0DFF63
:1005F0008B8A0DCFE6FFE0EC01F0E5520CCFE6FF71
:10060000E0EC01F0E5520BCFE6FFE0EC01F0E55243
:100610000ACFE6FFE0EC01F0E5528B9ADCD712003E
:10062000DACFE4FFE2CFDAFFE6529EAA0AD09E9A22
:10063000AECF0EFF720E0F010E5D03E10F01010E32
:10064000136FE552E5CFDAFF1100FC0ED314000959
:10065000D36E94989496949A8B9AD7EC01F0D08E9E
:100660009F8A9D8A9E9AF28EF28C1200D9CFE6FF65
:10067000E1CFD9FF020EE126DF6A010EE66ED95006
:10068000010FE66E000EDA20E66E0F0EE66E0F0E1C
:10069000E66E21EC00F0006E050EE15E0050DF26F4
:1006A000E66AD950010FE66E000EDA20E66E110EF2
:1006B000E66E0F0EE66E21EC00F0006E050EE15EB8
:1006C0000050DF26DF5028E010EC01F0010EE66E4E
:1006D000D950010FE66E000EDA20E66E0F0EE66EC0
:1006E0000F0EE66E21EC00F0006E050EE15E00508C
:1006F000DF26E66AD950010FE66E000EDA20E66EBC
:10070000110EE66E0F0EE66E21EC00F0006E050E87
:10071000E15E0050DF26D6D7020EE15C02E2E16A1C
:0C072000E552E16EE552E7CFD9FF120070
:04072C000E0EF66E49
:10073000000EF76E000EF86E0F010900F550056F00
:100740000900F550066F03E1056701D03DD00900AF
:10075000F550006F0900F550016F0900F550026F68
:1007600009000900F550E96E0900F550EA6E09002C
:1007700009000900F550036F0900F550046F0900E6
:100780000900F6CF07FFF7CF08FFF8CF09FF00CF2A
:10079000F6FF01CFF7FF02CFF8FF0F01035302E18D
:1007A000045307E00900F550EE6E0307F8E2040772
:1007B000F9D707CFF6FF08CFF7FF09CFF8FF0F01F2
:0A07C0000507000E065BBFD712000C
:0607CA00D9CFE6FFE1CFEC
:1007D000D9FF020EE126040EDF6EDE52530EDD6EEF
:1007E000010EDB0602E0FCD7FBD7DF06F6E1FE0ECA
:1007F000DB06F1E1020EE15C02E2E16AE552E16E44
:08080000E552E7CFD9FF120019
:08080800600EF36E00EE00F03B
:100810000F0E01D81200EA6002D0EE6AFCD7F35046
:08082000E9601200EE6AFCD74A
:080828001EEE00F02EEE00F0C0
:10083000F86A059C96EC03F003EC00F0EAEC02F099
:04084000FBD71200D0
:0C08440030313233343536373839414218
:040850004344454692
:0508540000000000009F
:020000040030CA
:0100010001FD
:010002001EDF
:0100030012EA
:010005008476
:010006008178
:00000001FF
