:060000008031D028000051
:0800080083018A012000770842
:10001000A0007808A1007908A2007A08A3000B1EAE
:1000200013288B182328850191308400001C1A287E
:10003000111825282008F7002108F8002208F900E7
:100040002308FA000900803130288031692897019F
:10005000960122009D12200098019901A401080038
:10006000A408031D3D2822009D1235302000980071
:10007000990197019601A40A662800301604A80089
:1000800017081704A9002908CC3C03184E28FF3A8A
:10009000031D58282808143C031C58282908043C30
:1000A000031C5A28031D58282808E13C031C5A2821
:1000B00027206628A40A2408013C03186628573024
:1000C000111E602823009A00200027208B10803109
:1000D0001A282720111080311A28CE33F53C6537B5
:1000E000C83AEE332005A0062022D41AA016A02577
:1000F000B519A016202248214B244E100A100D00DD
:10010000D23261327910F437A03AF332A0102110C4
:100110008A0620002300951715140000000013081C
:100120007F390319CE282000A500230011082000E4
:10013000A600230012082000A7002508111E9E28F3
:1001400023009A00200026082300910020002708A1
:10015000230092009517151400000000130D140DD4
:100160007F390319CE282000A500230011082000A4
:10017000A600230012082000A7002508111EBE2893
:1001800023009A0020002608230091002000270861
:1001900023009200910A0319920A8B28200008007C
:1001A000850184011F308305193023009B00A63090
:1001B0009E0090309D002F009101920198019901BD
:1001C0009A01003023008D001010901010112100B2
:1001D0001E109E1023008C002100970107309C0008
:1001E000970107309C00050885000630F700F70BE3
:1001F000F72800001C08200092120B16C0308B0458
:1002000021001114151322009D122000980199015C
:100210006D30230091000030920020008A20803051
:10022000230091000030920020008A2016296300EC
:020000040001F9
:04000E00EA39FF1EAE
:00000001FF
;PIC16F1936
;CRC=E905  CREATED="07-Nov-12 17:52"
