:1000000000308A00F5280000FF00030E8301A500E0
:100010007F08A4000A08AB008A01A40E0408A60009
:100020002008A7002108A8002208A9002308AA0088
:10003000831383120B1E1E288B1839288C308400E2
:10004000801E24288C1A3B288B1E28280B193D283B
:10005000260884002708A0002808A1002908A2007B
:100060002A08A3002B088A00250E8300FF0E7F0EAE
:1000700009008A1147288A11EA288A1184288316E0
:100080000C1083128F018E019001AF010800B8019E
:10009000B7010F08A3000E08A0000F082302031DDC
:1000A00049282008B7002308B800AF08031D6228BC
:1000B000353090008F018E01AF0AB301B201B1015A
:1000C000B00181283808043C031C7228031D6C28E9
:1000D0003708E13C031C72282F080A3C03187028DB
:1000E0003F208128AF0A3708B00738080318380FB7
:1000F000B107003003180130B20700300318013097
:10010000B3078B108A1128283408273C031CAE281B
:10011000B40A3408B7000330B8003808A101370228
:10012000031895283708A000A128A0010830B900BD
:10013000B70DA00D380820020318A000A10DB90BBF
:100140009828A008031DAD28003007190130013A96
:10015000A100211C071121180715B12807118710CC
:100160000710AD0A0319AE0A2D08143C031DC72859
:10017000AE08031DC7288F018E01900183160C1055
:1001800083120B128F018E01AF018715E7282D080E
:10019000153C031DE728AE08031DE728AE01AD019D
:1001A0008B1287150130B800B7013808A300370853
:1001B0000319B803B7032304031DD52881018B1647
:1001C0008F018E010B16831601138312AF010B11E1
:1001D0008A1128288C1EEA281408B70052308C1C7B
:1001E000EF2895008C128A112828840183131F3070
:1001F0008305911119309300A63096009030970036
:10020000AE01AD01B301B201B101B001B4011F13E0
:1002100000308316910083129A01073099009A01E9
:100220000730990083160508850006308312A00068
:10023000A00B1829000019088C1183160108C03979
:100240000738810083128B1683168C16C0308312F8
:100250008B048316011383129001831607108710F5
:1002600007118711831287110711871007100F08D4
:10027000A3000E08A0000F082302031D3729200841
:10028000B5002308B60036082F3C03185A29FF3A58
:10029000031D4E293508D43C03185A292F080A3C5F
:1002A00003185A29871407143F20B40157308C1CB7
:0802B00057299500372963006E
:02400E00F23C82
:00000001FF
;PIC16F688
;CRC=C47F  CREATED="18-Jan-13 10:56"
